:020000040800F2
:10000000C0070020390D0008C1070008C307000819
:10001000C7070008CB070008CF0700080000000052
:10002000000000000000000000000000D3070008EE
:10003000D507000800000000D7070008D90700080E
:10004000530D0008530D0008530D0008530D000810
:10005000530D0008530D0008530D0008530D000800
:10006000530D0008530D0008530D0008530D0008F0
:10007000530D0008530D0008530D0008530D0008E0
:10008000530D0008530D0008530D0008530D0008D0
:10009000530D0008530D0008530D0008530D0008C0
:1000A000530D0008530D0008530D0008530D0008B0
:1000B000530D0008530D0008530D0008530D0008A0
:1000C000530D0008530D0008530D0008530D000890
:1000D000530D0008C50C0008530D0008530D00080F
:1000E000530D0008530D0008530D0008530D000870
:1000F000530D0008530D0008530D0008530D000860
:10010000530D0008530D0008530D0008530D00084F
:10011000530D0008530D0008530D0008530D00083F
:10012000530D0008530D0008530D0008530D00082F
:1001300000F002F800F04AF80AA090E8000C8244AF
:100140008344AAF10107DA4501D100F03FF8AFF28C
:10015000090EBAE80F0013F0010F18BFFB1A43F0A5
:1001600001031847F848000018490000103A24BF5E
:1001700078C878C1FAD8520724BF30C830C144BF0C
:1001800004680C607047000000230024002500264E
:10019000103A28BF78C1FBD8520728BF30C148BFEA
:1001A0000B607047662904F0BB82632901F08F86DB
:1001B000002070471FB501F0A9FE040000200021B7
:1001C00003F0DEFCE0601FBD10B510BD01F0BAFF0A
:1001D0001146FFF7EFFF00F090F801F0D8FF03B4ED
:1001E000FFF7F2FF03BC00F0FDFC00002DE9FC5F0F
:1001F00081468A464FF0000B002407E019F80400FE
:100200002E2801D1A34603E0601CC4B25445F5DB9F
:1002100000BFBBF1000F50D0002417E019F8041004
:10022000A1F1300003F005FF074688460022F94B94
:100230002846314603F064FF3A464346CDE90001C3
:1002400003F0B4FC05460E46601CC4B25C45E5DB19
:100250000BF10100C4B217E019F80410A1F130004D
:1002600003F0E7FE074688460022EA4B284631465F
:1002700003F046FF3A464346CDE9000103F096FC01
:1002800005460E46601CC4B25445E5DBAAEB0B01E3
:10029000481E03F0CEFE02460B46CDE900010020C9
:1002A000DC4902F00BFF07463A460B46284631462A
:1002B00003F038FD05460E461BE0002417E019F850
:1002C0000410A1F1300003F0B4FE07468846002276
:1002D000D04B2846314603F013FF3A464346CDE95A
:1002E000000103F063FC05460E46601CC4B2544591
:1002F000E5DB28463146BDE8FC9F1FB500F002FC57
:1003000000F06AFC4FF4165000F07FFC00F056FB42
:1003100000F07AFB12E2C04800780128FAD1BF4809
:10032000007873284CD104240AE0BC48005D2928D9
:1003300004D1BB4804707320BA490870601CC4B271
:100340001E2CF2DBB54800792D2819D0042406E0D4
:10035000B248015D201FB44A1154601CC4B2B048B9
:1003600000788442F4DBAE480078001FAF49087083
:1003700008460178AC48FFF739FFAD4A03C23DE1BA
:10038000052406E0A548015D601FA74A1154601CC2
:10039000C4B2A34800788442F4DBA1480078401F2F
:1003A000A2490870084601789F48FFF71FFFA04A3E
:1003B00003C29F4903C981F00041083A03C21DE10D
:1003C0009648007863284CD104240AE09348005DE5
:1003D000292804D192480470632092490870601C57
:1003E000C4B21E2CF2DB8D4800792D2819D00424CC
:1003F00006E08A48015D201F8B4A1154601CC4B27C
:10040000874800788442F4DB85480078001F8749DC
:100410000870084601788448FFF7E8FE844A03C262
:10042000ECE0052406E07D48015D601F7E4A115422
:10043000601CC4B27A4800788442F4DB78480078C3
:10044000401F7A490870084601787748FFF7CEFECA
:10045000774A03C2764903C981F00041083A03C2D2
:10046000CCE06E4800782D286CD1002405E06B4963
:10047000601C085C0855601CC4B21D2CF7DB00240E
:1004800000BF6648005D2B280BD06448005D2D2816
:1004900007D06248005D2A2803D06048005D2F28FD
:1004A00005D15F4804705D48005D5E4908705B4897
:1004B000005D3D2802D15F48047002E0601CC4B2B8
:1004C000DFE700BF002405E05448005D56490855A9
:1004D000601CC4B2524800788442F5DB5048007872
:1004E00052490870084601784F48FFF77FFE504A8E
:1004F00003C24F4903C981F00041083A03C248488A
:100500000078401CC4B209E04448015D44480078CA
:10051000201A401E484A1154601CC4B24548007855
:100520008442F1DB434800783D490978401A401E77
:1005300042490870084601783F48FFF757FE404A95
:1005400003C25BE0002400BF3448005D2B280BD0C1
:100550003248005D2D2807D03048005D2A2803D09E
:100560002E48005D2F2805D12D4804702B48005DD2
:100570002C4908702948005D3D2802D12D4804709F
:1005800002E0601CC4B2DFE700BF002405E023489E
:10059000005D25490855601CC4B22148007884429A
:1005A000F5DB1F48007821490870084601781E488D
:1005B000FFF71CFE1E4A03C219480078401CC4B253
:1005C00009E01648015D16480078201A401E1A4AB4
:1005D0001154601CC4B2174800788442F1DB1548FE
:1005E00000780F490978401A401E144908700846DF
:1005F00001781148FFF7FAFD114A03C20948007853
:100600002F283FD01EDC2A2833D02B281FD02D289E
:100610004FD125E000002440440000207800002055
:100620002300002022000020640000202000002081
:1006300000000020240000206E0000202100002087
:100640000800002063282DD0732832D123E03C48D5
:100650003C490CC803C903F0A9FA3B4A03C229E08C
:10066000374838490CC803C903F070FF364A03C243
:1006700020E0334833490CC803C903F041FD324A36
:1006800003C217E02E482F490CC803C903F04AFBE8
:100690002D4A03C20EE02B4903C903F0FBF92A4A95
:1006A00003C207E0274903C902F0BAFC264A03C285
:1006B00000E000BF00BF25480078732803D023481E
:1006C000007863281DD12148007863280CD0732856
:1006D00015D11C480CC81EA001F042F91A480CC8DC
:1006E00022A001F03DF90BE016480CC824A001F04F
:1006F00037F915480CC81DA001F032F900E000BF21
:1007000010E00F4803C8CDE90201104800780090BE
:100710000C480CC821A001F023F90B480CC813A009
:1007200001F01EF9002024490870002404E0002094
:1007300022490855601CC4B21E2CF8DBEBE5000012
:1007400008000020000000201800002022000020E7
:10075000546865206571756174696F6E3A207369BC
:100760006E28256C66290D0A00000000546865207B
:10077000726573756C7420203A20256C660D0A0032
:10078000546865206571756174696F6E3A20636F96
:100790007328256C66290D0A000000005468652046
:1007A0006571756174696F6E3A20256C66202563EA
:1007B00020256C660D0A000044000020780000200F
:1007C000704700BFFEE700BFFEE700BFFEE700BFC7
:1007D000FEE7704770477047704700000CB5002077
:1007E000019000906C48006840F480306A490860CD
:1007F00000BF6948006800F4003000900198401C78
:100800000190009818B90198B0F5A06FF1D1624835
:10081000006800F4003010B10120009001E00020D9
:1008200000900098012843D15C48006840F0100017
:100830005A4908600846006820F00300086008462E
:10084000006840F002000860534840685249486020
:100850000846406848600846406840F48060486048
:100860000846406820F47C1048600846406840F420
:10087000E81048600846006840F08070086000BFDB
:100880004548006800F000700028F9D042484068F0
:1008900020F00300404948600846406840F00200EC
:1008A000486000BF3C48406800F00C000828F9D1BF
:1008B0000CBD10B5FFF792FF10BD10B536480068AB
:1008C00040F0010034490860084640683449084057
:1008D0003149486008460068324908402E4908609E
:1008E0000846006820F4802008600846406820F42C
:1008F000FE0048604FF41F008860FFF7DAFF4FF0FA
:1009000000602949086010BD10B5002100200022B8
:10091000214B5B6803F00C0121B1042906D00829A2
:1009200028D107E0214B224C236027E01F4B204CAD
:10093000236023E0184B5B6803F47010164B5B6870
:1009400003F48032022303EB904022B9194B434356
:10095000174C23600DE0104B5B6803F4003323B1A8
:10096000144B4343124C236003E0104B4343104CA1
:10097000236003E00D4B0E4C236000BF00BF064B0D
:100980005B68C3F303130C4CE15C094B1B68CB4061
:10099000074C236010BD0000001002400020024000
:1009A0000000FFF8FFFFF6FE08ED00E000127A00FD
:1009B0002800002000093D002C00002008B501217E
:1009C000482000F063FD2020ADF8000010208DF8D5
:1009D000030003208DF802006946094800F09AFAE6
:1009E0002021074800F043FB2020ADF800006946B5
:1009F000044800F08FFA2021024800F038FB08BDBF
:100A0000000C01400018014008B50121442000F00D
:100A10003DFD1C20ADF8000048208DF8030069461C
:100A2000354800F077FA0120ADF8000028208DF855
:100A300003006946314800F06DFA08BD10B5044660
:100A400014B101202E4908702D480078002837D0B5
:100A50001021294800F0F1FA78B10821264800F069
:100A6000ECFA50B10421244800F0E7FA28B1012142
:100A7000224800F0E2FA012822D10A2000F07FF893
:100A800000201F49087010211B4800F0D6FA08B951
:100A9000012010BD0821184800F0CFFA08B9022043
:100AA000F7E70421144800F0C8FA08B90320F0E77A
:100AB0000121124800F0C1FA01281BD10420E8E707
:100AC00010210D4800F0B9FA012813D108210A4875
:100AD00000F0B3FA01280DD10421074800F0ADFA67
:100AE000012807D10121054800F0A7FA10B901201B
:100AF000034908700020CCE70018014000080140BD
:100B00003C00002010B56FF0040000F084F92E487E
:100B100000682E49B0FBF1F02D49087008460078B6
:100B200000EB4001C1EBC0104FF6FF7101EAC000BD
:100B30002849088010BD0146254A12784A434FF0E3
:100B4000E0235A6100229A611A46126942F00102BA
:100B50001A6100BF4FF0E022106900F001021AB1E3
:100B600000F48032002AF5D04FF0E022126922F022
:100B700001024FF0E0231A6100229A61704701469A
:100B8000144A12884A434FF0E0235A6100229A61C6
:100B90001A46126942F001021A6100BF4FF0E022CA
:100BA000106900F001021AB100F48032002AF5D079
:100BB0004FF0E022126922F001024FF0E0231A61A7
:100BC00000229A61704700002800002000127A007D
:100BD0003E0000204000002010B54FF4A06000F05F
:100BE000CBF810BD014600BF704770B504460D46F6
:100BF00000BF40214A4800F057FE0028F9D0E1B27A
:100C0000474800F0E3FD204670BD10B586B00446AD
:100C1000012144F2040000F039FC414800F09AFC44
:100C20004FF40070ADF8140003208DF81600182062
:100C30008DF8170005A93B4800F06CF94FF480606F
:100C4000ADF8140004208DF8170005A9354800F010
:100C500061F901940020ADF80800ADF80A00ADF884
:100C60000C00ADF810000C20ADF80E0001A92C48C6
:100C700000F0B3FC25208DF8000003208DF8010062
:100C80008DF8020001208DF80300684600F079F825
:100C9000012240F22551224800F037FD0121204871
:100CA00000F027FD06B010BD10B5044621461C48D3
:100CB00000F08CFD00BF4021194800F0F5FD002830
:100CC000F9D010BD10B540F22551154800F002FED4
:100CD00020B31548006808B9012000E0002012493F
:100CE00008600F4800F076FDC4B21048104909783A
:100CF00044540F480078401C0D490870084600789D
:100D00001E2190FBF1F201FB1200094908703D2CF5
:100D100004D10020087001200649087010BD0000B1
:100D200000380140000801409481214278000020F1
:100D30004E00002044000020094880470948004731
:100D4000FEE7FEE7FEE7FEE7FEE7FEE7FEE7FEE77B
:100D5000FEE7FEE704480549054A064B70470000D8
:100D6000BB08000831010008C0010020C0070020B6
:100D7000C0030020C003002031490143314A116003
:100D8000704770B5002100230F22C47804B32D4CA6
:100D9000246804F4E064C4F5E064210AC1F10403AA
:100DA000CA40447804FA03F18478144021430901CD
:100DB000254C0678A155047804F01F050124AC40A9
:100DC00005786D11AD0005F1E025C5F8004109E099
:100DD000047804F01F050124AC401C4D0678761100
:100DE00045F8264070BD1A4A0A400243154B1B1FA6
:100DF0001A60704739B1134A121D12680243114B31
:100E00001B1D1A6006E00F4A121D126882430D4B2B
:100E10001B1D1A607047042808D14FF0E0210969B2
:100E200041F004014FF0E022116107E04FF0E021B2
:100E3000096921F004014FF0E022116170470000C0
:100E40000000FA050CED00E000E400E080E100E0C5
:100E500080FFFF1F10B50446CC48844208D1012111
:100E6000042000F02DFB0021042000F029FB46E0C7
:100E7000C748844208D10121082000F021FB00214D
:100E8000082000F01DFB3AE0C248844208D101214D
:100E9000102000F015FB0021102000F011FB2EE0C7
:100EA000BD48844208D10121202000F009FB002127
:100EB000202000F005FB22E0B848844208D101213F
:100EC000402000F0FDFA0021402000F0F9FA16E081
:100ED000B348844208D10121802000F0F1FA0021BA
:100EE000802000F0EDFA0AE0AE48844207D10121EB
:100EF000801500F0E5FA0021A01500F0E1FA10BD20
:100F000010B50121084600F0DBFA0021012000F0B5
:100F1000D7FA10BD2DE9F041024600250026002039
:100F200000230024002791F803C00CF00F0591F86E
:100F300003C00CF0100CBCF1000F03D091F802C0FC
:100F40004CEA050591F800C0BCF1000F31D01468DF
:100F500000202BE04FF0010C0CFA00F3B1F800C0B8
:100F60000CEA03069E4220D183004FF00F0C0CFACE
:100F700003F7BC4305FA03FC4CEA040491F803C0F0
:100F8000BCF1280F06D14FF0010C0CFA00FCC2F89E
:100F900014C00AE091F803C0BCF1480F05D14FF02E
:100FA000010C0CFA00FCC2F810C0401C0828D1D378
:100FB0001460B1F800C0BCF1FF0F34DD54680020AC
:100FC0002EE000F1080C4FF0010808FA0CF3B1F81C
:100FD00000C00CEA03069E4221D183004FF00F0CA3
:100FE0000CFA03F7BC4305FA03FC4CEA040491F83D
:100FF00003C0BCF1280F05D100F1080C08FA0CF869
:10100000C2F8148091F803C0BCF1480F07D100F179
:10101000080C4FF0010808FA0CF8C2F81080401CC8
:101020000828CED35460BDE8F0814FF6FF710180EF
:10103000022181700421C17070470246002093682C
:101040000B400BB1012000E000207047014688688A
:1010500080B2704702460020D3680B400BB10120DC
:1010600000E0002070470146C86880B27047016107
:101070007047416170470AB1016100E0416170470A
:10108000C16070474FF480320A438261816182619E
:1010900082698269704702460020434B18684FF608
:1010A0008073184040EA021008433F4B18607047B5
:1010B0003E49C8617047F0B50A460023002400216C
:1010C000002500F00046B6F1004F02D1364EF1691E
:1010D00001E0354E7168C0F3034583B200F4401659
:1010E000B6F5401F08D121F070612F4E766826F0CA
:1010F00070662D4F7E6012E000F48016B6F5801FFA
:1011000006D1032606FA05F4A14341F0706106E01A
:10111000460D360103FA06F6B14341F0706122B183
:10112000460D360103FA06F6314300F00046B6F1EB
:10113000004F02D11C4EF16101E01B4E7160F0BD09
:1011400030B500228B071C0F0F2303FA04F2164B55
:1011500008338C1053F824309343134C08348D100B
:1011600044F8253023468C1053F824308C07240F84
:1011700000FA04F423430C4C08348D1044F8253055
:1011800030BD0A49DC3108607047000000080140AA
:10119000000C014000100140001401400018014003
:1011A000001C0140002001400000014000002042DE
:1011B000DF48006840F00100DD49086008464068EB
:1011C000DC490840DA49486008460068DA490840C6
:1011D000D74908600846006820F480200860084667
:1011E000406820F4FE0048604FF41F00886070479C
:1011F000CF49096821F48031CD4A11601146096850
:1012000021F480211160B0F5803F03D0B0F5802F2C
:101210000ED106E0C649096841F48031C44A116024
:1012200007E0C349096841F4A021C14A116000E008
:1012300000BF00BF704710B5014600220023002008
:101240004A11012A02D1BA4C236806E0022A02D1CF
:10125000B74C236A01E0B64C636A01F01F02012417
:1012600094401C400CB1012000E0002010BD38B5B6
:10127000002000900024002500BF3120FFF7DBFF95
:1012800005460098401C00900098B0F5A06F01D072
:10129000002DF2D03120FFF7CEFF08B1012400E08D
:1012A0000024204638BD01460020A14A106820F0E5
:1012B000F80040EAC10010607047A049086070471C
:1012C000024600209A4B586820F47C1042EA010341
:1012D0001843974B58607047984908667047014615
:1012E0000020934A506820F0030008435060704784
:1012F0008F48406800F00C007047014600208C4A7F
:10130000506820F0F000084350607047014600200C
:10131000874A506820F4E0600843506070470146F7
:101320000020834A506820F4605040EAC1005060B9
:10133000704729B17E4A527A02437D4B5A7204E0CB
:101340007B4A527A82437A4B5A7270477B49D83132
:101350000860704701460020754A506820F44040FC
:101360000843506070470021714A20321170704A62
:1013700082F82010012802D004280AD104E00121BB
:101380006B4A2032117005E00521694A2032117044
:1013900000E000BF00BF70476949086070476449BA
:1013A000096A0143624A116270476549443908601D
:1013B000704730B500210022002400235C4D6D6889
:1013C00005F00C0121B1042905D0082923D105E03D
:1013D0005C4D056022E05B4D05601FE0544D6D687B
:1013E00005F47012524D6D6805F48034022505EB4A
:1013F00092421CB9544D554305600BE04C4D6D684D
:1014000005F400351DB1504D5543056002E04D4DCA
:101410005543056002E04B4D056000BF00BF444DE1
:101420006D6805F0F0010909484D6B5C0568DD4009
:1014300045603F4D6D6805F4E061090A434D6B5C02
:101440004568DD4085603A4D6D6805F46051C90A14
:101450003E4D6B5C4568DD40C560354D6D6805F4FB
:101460004041890B3A4D6B5CC568B5FBF3F50561EE
:1014700030BD29B12E4A526902432D4B5A6104E016
:101480002B4A526982432A4B5A61704729B1284A34
:1014900092690243264B9A6104E0254A926982438D
:1014A000234B9A61704729B1214AD2690243204BEC
:1014B000DA6104E01E4AD26982431D4BDA6170474B
:1014C00029B11B4AD2680243194BDA6004E0184A7A
:1014D000D2688243164BDA60704729B1144A126908
:1014E0000243134B1A6104E0114A12698243104B04
:1014F0001A61704712494039086070470F49C86443
:1015000070470B49C87170470948406A40F08070C5
:1015100007494862704701460020054A92680A4020
:101520000AB1012000E0002070470149887270472D
:10153000001002400000FFF8FFFFF6FE00004242EC
:101540008004424200127A0000093D004F00002052
:101550005F00002010B50446FB48844209D10121F8
:101560008803FFF7ADFF00214FF48040FFF7A8FF8D
:1015700032E0F648844209D101214804FFF7ADFF6B
:1015800000214FF40030FFF7A8FF25E0F048844227
:1015900009D101218804FFF7A0FF00214FF480202A
:1015A000FFF79BFF18E0EB48844209D10121C804F2
:1015B000FFF793FF00214FF40020FFF78EFF0BE0B1
:1015C000E548844208D101210805FFF786FF002184
:1015D0004FF48010FFF781FF10BD2DE9F04786B072
:1015E00005460E460024A24600BFA1460027B0894A
:1015F00000B100BF2F462C8A4CF6FF700440F088E3
:1016000004432C82AC894EF6F3100440B088318933
:101610000843718908430443AC81AC8A4FF6FF400C
:101620000440B0890443AC8201A8FFF7C2FEC6485B
:10163000874202D1DDF810A001E0DDF80CA0A889F6
:1016400000F4004040B10AEBCA0000EB0A10316818
:101650004900B0FBF1F807E00AEBCA0000EB0A1002
:1016600031688900B0FBF1F86420B8FBF0F00401A8
:101670002009642101FB1089A88900F4004040B1D1
:10168000322000EBC900B0FBF1F000F0070004438A
:1016900008E0322000EB09106421B0FBF1F000F00B
:1016A0000F0004432C8106B0BDE8F0874FF41651BB
:1016B000016000218180C18001810C2141810021D4
:1016C0008181704710B502460020108A4FF2FF0357
:1016D00018400B884C8823438C882343CC882343B1
:1016E0001843108210BD0021018041808180C1809B
:1016F000704721B1828942F40052828104E08289DC
:101700004DF6FF731A4082817047F0B503460024FE
:1017100000260025002040F66A17B94200D100BF1C
:101720001846C1F3421401F01F06012707FA06F517
:10173000012C01D10C3004E0022C01D1103000E06A
:1017400014301AB107682F43076002E00768AF43FF
:101750000760F0BD1AB1838A0B43838202E0838A5B
:101760008B4383827047028A4FF6F0731A400282DD
:10177000028A0A430282704782894FF2FF731A403D
:10178000828182890A438281704721B1828942F035
:101790000202828104E082894FF6FD731A40828141
:1017A0007047028A4FF6DF731A400282028A0A43A8
:1017B0000282704721B1028A42F48042028204E030
:1017C000028A4BF6FF731A4002827047C1F3080287
:1017D0008280704701468888C0F30800704781897D
:1017E00041F0010181817047028BD2B20283028BEA
:1017F00042EA012202837047028B02F47F42028395
:10180000028B0A430283704721B1828A42F0200290
:10181000828204E0828A4FF6DF731A408282704728
:1018200021B1828A42F01002828204E0828A4FF65D
:10183000EF731A408282704721B1828A42F0080217
:10184000828204E0828A4FF6F7731A4082827047E0
:1018500021B1828942F40042828103E08289C2F38D
:101860000E028281704721B1828A42F40062828234
:1018700004E0828A4FF2FF731A4082827047828AA4
:101880004FF6FB731A408282828A0A438282704733
:1018900021B1828A42F00202828204E0828A4FF6FB
:1018A000FD731A408282704702460020B1F5007F26
:1018B00000D100BF13880B400BB1012000E00020D5
:1018C000704701F40072B2F5007F00D100BFCA4337
:1018D0000280704770B502460024002300250020D6
:1018E00040F66A16B14200D100BFC1F3421501F0C3
:1018F0001F03012606FA03F3012D02D19689334016
:1019000006E0022D02D1168A334001E0968A334068
:101910000C12012606FA04F41688344013B10CB1F7
:10192000012000E0002070BD10B50022002340F629
:101930006A14A14200D100BF0A1201249440A3B24C
:10194000DC43048010BD000000380140004400402A
:1019500000480040004C004000500040704700002C
:101960000FB4044910B503AA029800F0BDFA10BCE8
:101970005DF814FB4800002070B50C460546012AAE
:1019800005D02878800600D5EA69002302E001230B
:1019900005E05B1C934202D2E05C0028F9D1A86903
:1019A000E618C01AA861286A184428622846AFF3CE
:1019B000008004E0D5E9012114F8010B9047B442FE
:1019C000F8D32846AFF3008070BD2DE9F0410F46F3
:1019D0000546002028622846E968884770B3252814
:1019E00005D0D5E901219047286A401CF2E7E96853
:1019F0002846002688476C2804460AD0682C08D060
:101A00004C2C35D06A2C31D0742C31D07A2C2FD07C
:101A100016E0E968064628468847B042044608D1E1
:101A20006C2E23D04FF480662846E9688847044628
:101A300006E06C2E03D04FF4807601E01EE04026D5
:101A4000E4B1A4F14100192802D8203446F400661C
:101A50003A46214628462E60FEF7A4FB60B10128D5
:101A600008D0FF1D27F007070837B4E78026DBE71B
:101A70000026D9E73F1DAEE72046B2E7286ABDE859
:101A8000F081704770477047704710B500F042FA18
:101A9000006810BD10B5044600F03CFA046010BDAB
:101AA00070472DE9FF4F0C461E464FF0FF378BB0B5
:101AB000D2E90001DDF860800A908A46C1F30A5538
:101AC00005B93D46002108464FF00000BAF1000F6D
:101AD00000F4400005DA00EB80004FF4400101EA19
:101AE00050004FEA9059B9F1010F00DDB9460A984C
:101AF00050EA4A000ED044F61050A5F2FF35454397
:101B00002F14B8F1000F1ED07542291E1EDDC9F139
:101B100000021CE0B8F1010F4FF0000001D03021AD
:101B200003E0F24305E02154401CB042FBDB3046A9
:101B30000022002121540B99C1F80880C1E900203E
:101B40000FB0BDE8F08FBD1B6D1CDEE74A4600DA22
:101B5000694206A800F080FA06AB93E8070003ABE1
:101B600083E8070050460A9900F05AFB8DE8070009
:101B7000A0F500501F3800900398002D09DD42F2B7
:101B80001F014A46084403A90390684600F0B9FDC6
:101B900008E0A0F500504A461F3803A903906846A4
:101BA00000F0C3FD8DE807000004000C03D04FF0E7
:101BB000FF30410800E01046B8F1000F03D00022CA
:101BC000009215461EE0751E05D400F0A7F93032CC
:101BD00062556D1EF9D5B3460122084302D000229A
:101BE0007F1C04E02078302801D100227F1E002ACB
:101BF000099786D01DE0112D07DA00F08FF93032F9
:101C000062556D1C50EA0102F5D1084302D00098DC
:101C1000C8B10EE00021681E05E0235C625C6354DD
:101C20002254401E491C8142F7DBAB46A81B401ED4
:101C30000990002004F80B000B98099AC0F808805E
:101C4000C0E9002B7CE711264FF0000859E72DE989
:101C5000F04F88460446D21D22F0070191B0D1E929
:101C60000001CDE90A0100F096FE02460B98C00F74
:101C700001D02D2007E02068810701D52B2002E04C
:101C8000202101EAC000032A099001D0072A05DBC0
:101C900003464146204600F09FF90BE1207880067C
:101CA00001D5E06900E00620B8F1650F814606D055
:101CB000B8F1660F18D0B8F1670F70D131E000208D
:101CC000B9F1110F009001DB112301E009F10103CB
:101CD0000AAA01A90CA8FFF7E4FEDDE90C700026B2
:101CE00009F10105834647E001204B4600904FF083
:101CF00000470AAA01A90CA8FFF7D3FEDDE90DB041
:101D00000C995D46002610B909F101000D18B9EBD8
:101D1000050003D4C0F1FF3609F10105A5EB090068
:101D20002BE0B9F1010F01DA4FF001090020B9F100
:101D3000110F0090484601DD112300E003460AAA76
:101D400001A90CA8FFF7ADFEDDE90C704D46002699
:101D50008346207800070AD4AB4500DA5D4601A827
:101D6000012D04DD411911F8011C302907D04F4520
:101D700002DA17F1040F04DA012082460FE06D1E2B
:101D8000EEE7002F02DCED1B3E4403E0781CA84286
:101D900000DD7D1CB81B00F1010A4FF000472078E0
:101DA000000703D4AA4501DB4FF0FF3A0021B7F149
:101DB000004F0DF143088DF8431024D002202B234F
:101DC000002F01DA7F422D230A21021EA0F101001B
:101DD00000DC5FB197FBF1FC97FBF1F201FB1C7C8F
:101DE00017460CF1300C08F801CDEEE7A8F1010020
:101DF00003702188090501D5452100E06521A0F186
:101E0000010800F8011C09980FA9A1EB0807FF1DA4
:101E100000B10120411901EBEA70A1693844081AA8
:101E2000401EA0612078C00602D42046AFF3008097
:101E3000099828B1D4E901219047206A401C20620A
:101E40002078C00622D52046AFF300801EE0002E89
:101E500004DBB34502DD01A8805D00E03020D4E959
:101E600001219047206A401C2062761CAAF10100E3
:101E70005FEA000A0AD100F049F8C0680168405CD6
:101E8000D4E901219047206A401C2062281EA5F158
:101E90000105DCDC07E0D4E9012118F8010B9047CB
:101EA000206A401C2062381EA7F10107F3DC20469F
:101EB000AFF30080032011B043E610B5436913B1BE
:101EC000AFF3008001E0FFF757FD012010BD12784D
:101ED00000F124010A7000224A700122EDE7116826
:101EE0004FF0FF32E9E70000074B70B50D467B4429
:101EF00000F05FF80446284600F01CF910B14FF0DE
:101F0000FF3070BD204670BDF9ECFFFF0048704700
:101F100080010020004870476001002030B5B0F11A
:101F20000A024FEA900E71F100034EEA817EB0EB97
:101F30000E0061EB91014FEA101E4EEA017E10EB9C
:101F40000E0041EB11114FEA102E4EEA016E10EB1C
:101F50000E0041EB11214FEA104E4EEA014E10EBFC
:101F60000E0041EB1141401841F100014FEAD00051
:101F700040EA41704FEAD10110EB80054FEA81043D
:101F800044EA907444EB01046D1944EB0404521BC1
:101F9000A3414FF0000348BF0A3200D530BD401CBA
:101FA00041F1000130BD000001694A1C026108785E
:101FB000704700B58FB0CDE9013100210591054989
:101FC0007944CDE9031011466846FFF7FEFC0FB0D7
:101FD00000BD0000E5FFFFFF2DE9F0411F4604466C
:101FE00003260168072A01F4006004DB08B116A586
:101FF00005E016A503E008B115A500E015A521F040
:1020000010002060A069C01EA0610FB1401EA06139
:102010002046AFF300804FB1D4E901213846904704
:10202000206A401C2062C01C206206E0206AFAE799
:10203000D4E9012115F8010B9047761EF8D220460D
:10204000AFF30080BDE8F0814E414E006E616E003E
:10205000494E4600696E66002DE9F04781461646F6
:102060008AB0334878440DC88DE80D003048784474
:10207000801C03AC0DC884E80D0041F69B30084479
:10208000372190FBF1F290FBF1F5A5F1800501FB02
:1020900012041B3C02D56442012000E00020DFF85E
:1020A00090A080460027FA44AAF1BE0A0DE0E0079E
:1020B00009D03246684607EB47010AEB810100F080
:1020C00034FB8DE8070064107F1C002CEFD1184F03
:1020D0007F44AC3F18E0E80714D007EB04100DF183
:1020E000180A90E80E008AE80E00C068F04201D19C
:1020F00098190890324606A903A800F016FB03AB16
:1021000083E807006D10641C002DE4D13246694657
:10211000B8F1000F03A802D000F0F3FA01E000F0DC
:1021200004FBC9E90001C9F808200AB0BDE8F0873E
:10213000DC290000007B00F08000704700487047F9
:10214000600100207546FFF7F9FFAE4605006946BD
:10215000534620F00700854618B020B5FEF7FAFD7B
:10216000BDE820404FF000064FF000074FF0000898
:102170004FF0000B21F00701AC46ACE8C009ACE819
:10218000C009ACE8C009ACE8C0098D46704710B57D
:102190000446AFF300802046BDE81040FEF71FB8AC
:1021A0004FF0013C50F8042B51F8043B9A4221D1E6
:1021B000A2EB0C03934313EACC1317D150F8042B72
:1021C00051F8043B9A4215D1A2EB0C03934313EA56
:1021D000CC130BD150F8042B51F8043B9A4209D18F
:1021E000A2EB0C03934313EACC13DBD04FF00000B7
:1021F000704700BFD01A01BAB1FA81F101F018019D
:1022000022FA01F0CB40C1F12001DBB2C0B2C01A0A
:102210002CFA01F3D11A914311EAC311E6D17047A8
:102220005FEA400C08BF91F0000F4FEA8C234FEAA1
:10223000C12243EA51514FEA1C5018BF00F5F0404B
:102240004FEA300018BF41F000415FEA6C5C00F0DB
:102250002980BCF1FF3F08BF40F080407047130C5D
:1022600006BF12044FF0100C4FF0000C130E04BF09
:1022700012020CF1080C130F04BF12010CF1040C34
:10228000930F04BF92000CF1020CD30F04BF520055
:102290000CF1010C11464FF00002A0F11F00A0EB61
:1022A0000C00704711F0004F08BF704731F000413B
:1022B0003FF4D5AF0B0C06BF09044FF0100C4FF0E4
:1022C000000C0B0E04BF09020CF1080C0B0F04BF2D
:1022D00009010CF1040C8B0F04BF89000CF1020CF6
:1022E000CB0F04BF49000CF1010CCCF12003A0EB93
:1022F0000C0022FA03F302FA0CF241EA030100F1A6
:102300000100704720F07F4C80EA030023F07F47F4
:10231000ACEB070303F57C5300F0004003F1FF032F
:102320002DE980494FEA154B09B44FEA144325EAD9
:102330000B4E24EA03480FF2042606EB1327490844
:102340003E785FEA320203FB0667C7F5000707FB2A
:1023500006F64FEA54374FEAD64606F1020607FB67
:10236000066CCCF1005C4FEA1C472CEA074C07FBDB
:1023700006F40CFB06F504EB15464FEA961634BF3F
:1023800000204FF000404FEAD13706FB07FC4FEA30
:102390001C4C0CFB0BF7D21B03FB0CF761EB07018A
:1023A0000CFB0EF7B0EB074072EB17420CFB08F783
:1023B00034BFA2EB0742B2EB074261EB17414FEA91
:1023C0000C444FEA910706FB07FC4FEA1C4C0CFB40
:1023D0000BF7B0EBC74072EB573203FB0CF734BF7F
:1023E000A2EBC742B2EBC74261EB57310CFB0EF7D1
:1023F000B0EBC70072EB57720CFB08F734BFA2EBCF
:10240000C702B2EBC70261EB5771039F4FEA8161CC
:1024100041EA921104EBCC044FEAD1374FEA8262D1
:1024200006FB07FC42EA90124FEA80604FEA1C4C20
:102430000CFB0BF7D21B03FB0CF761EB07010CFB4A
:102440000EF7B0EB074072EB17420CFB08F734BFF6
:10245000A2EB0742B2EB074261EB17414FEA8C5502
:102460004FEA910704EB9C2406FB07FC4FEA1C4C47
:102470000CFB0BF7B0EBC74072EB573203FB0CF7CA
:1024800034BFA2EBC742B2EBC74261EB57310CFB42
:102490000EF7B0EBC70072EB57720CFB08F734BFB6
:1024A000A2EBC702B2EBC70261EB577115EB4C25EB
:1024B0004FEA816141EA92114FEA82624FEAD137D5
:1024C00042EA901206FB07FC44F100044FEA8060E8
:1024D0004FEA1C4C0CFB0BF7D21B03FB0CF761EB18
:1024E00007010CFB0EF7B0EB074072EB17420CFB39
:1024F00008F734BFA2EB0742B2EB074261EB17418A
:1025000015EB1C154FEA813141EA92414FEA8232C4
:1025100042EA90424FEA80304FEA0C7644F10004E0
:1025200048EA03434EEA0B484FF0000EB2EB080CAA
:1025300071EB030724BF624639464EEB0E0E4FF097
:10254000000B0018524149414BEB0B0BB2EB080C4E
:1025500071EB03077BF1000B24BF624639464EEB5B
:102560000E0E4FF0000B0018524149414BEB0B0B84
:10257000B2EB080C71EB03077BF1000B24BF624642
:1025800039464EEB0E0E51EA020718BF46F001061F
:1025900016EB0E7655F1000254F1000103D5BDE8AB
:1025A0008901BDE80088BDE88901BDE80048B61989
:1025B000524141EB0101A3F10103704780807F7E0E
:1025C0007D7C7B7A797877767675747372717170A9
:1025D0006F6E6E6D6C6C6B6A6A696868676666655B
:1025E0006464636362616160605F5F5E5E5D5D5CE9
:1025F0005C5B5B5A5A59595858575756565555555A
:102600005454535352525251515050504F4F4F4EB9
:102610004E4D4D4D4C4C4C4B4B4B4A4A4A49494907
:102620004848484747474746464645454544444449
:10263000444343434342424242414141002B26D45A
:10264000770021D01CB54FEA370703B44FF01000D4
:102650004FF010014FF000000FBCBDE810400BF12F
:10266000010BBBF1010F08BF5FEA170722BF12F190
:10267000010211F101014FF0004143F1000300F0AC
:10268000004043EA00007047F9D35708DAE746EA0A
:10269000064613F1400F4FEA16461FDD13F1200FD7
:1026A000DFBF16430A46002120335B42C8D0C3F186
:1026B000200746EA064602FA07F74FEA164646EAB8
:1026C0000706C3F1200722FA03F201FA07F721FAFD
:1026D00003F14FF0000342EA0702B1E746EA0206BF
:1026E00046EA06464FEA164646EA0106BCBF46EAF7
:1026F0000646360C4FF000034FF000024FF0000189
:102700009EE72DE9C048934630B491E8380007C8E9
:1027100031EA400C48BF34EA430C03D5FFF7F2FD21
:10272000FFF78CFFF0BCBDE800882DE9C048934658
:1027300030B491E8380007C810F0804F08BF13F09C
:10274000804F03D100F005F8FFF778FFF0BCBDE83B
:10275000008820F07F4780EA030023F07F4C07EBDE
:102760000C03A3F57C5300F00040A3F1FE0392F0AC
:10277000000F00F0B38095F0000F00F077802DE996
:1027800001494FEA11404FEA144621EA004800FB94
:1027900006FC24EA064708FB06F607FB08F800FBE0
:1027A00007F718EB06484CEB164C4FEA124B18EBA8
:1027B00007484FEA15464CEB174022EA0B4E0BFB3D
:1027C00006FC25EA06470EFB06F607FB0EFE0BFB92
:1027D00007F71EEB064E4CEB164C4FF000061EEBB7
:1027E000074E4CEB174B18EB0B0840F1000018EBB1
:1027F0000E0B58EB000840F100008F1A4FF000015B
:102800003CBFC943661B14BFB5EB040C00213CBFA1
:10281000C943F61B4FEA17444EEA8E0E27EA0445D9
:102820004FEA1C4704FB07622CEA074C05FB07F73D
:102830000CFB05F604FB0CFC16EB074642EB1742BB
:1028400016EB0C4642EB1C421BEB060658EB020251
:10285000414146EA9E0601D5BDE80189B6195241BB
:1028600041EB0101A3F10103BDE801894FEA1445E1
:102870004FEA114724EA054621EA074C05FB07F415
:1028800006FB07F70CFB06F105FB0CFC11EB0741FF
:1028900044EB17444FEA124711EB0C4144EB1C4444
:1028A00022EA074C05FB07F206FB07F70CFB06F6CE
:1028B00005FB0CFC16EB074642EB174216EB0C46E9
:1028C00042EB1C456A1854F1000148BF7047B61925
:1028D000524141EB0101A3F10103704795F0000F54
:1028E00037D04FEA11424FEA144721EA024624EA60
:1028F000074C02FB07F106FB07F70CFB06F402FB93
:102900000CFC14EB074441EB17414FEA154714EB5D
:102910000C4441EB1C4125EA074C02FB07F506FB82
:1029200007F70CFB06F602FB0CFC16EB074645EB23
:10293000174516EB0C4645EB1C42121951F10001EC
:1029400048BF7047B619524141EB0101A3F10103A1
:1029500070474FEA14454FEA114724EA054621EA39
:10296000074C05FB07F106FB07F70CFB06F24FF0DF
:10297000000605FB0CFC12EB074241EB174112EB82
:102980000C4251EB1C4148BF7047921841EB0101CA
:10299000A3F101037047490050EAC12018BF042089
:1029A0004A0D18BF40F0010040F2FF72B2EB515FD8
:1029B00008BF40F00200012808BF05207047000052
:1029C0002DE9F74F144694B00021C4E9021115997E
:1029D000079121F00045C9498D4206DC1599C4E9EB
:1029E000000117B00020BDE8F08FC549DFF814A33F
:1029F000A9423CDD0799C44E0029C44FC44A159929
:102A0000534619DD01F0A2FD554506D0C14AC24B1F
:102A100001F09CFDC4E900010AE04FF0D352BE4B27
:102A200001F094FD32463B4601F090FDC4E90001FF
:102A300017B00120BDE8F08F01F0B8F8554506D079
:102A4000B44AB54B01F0B2F8C4E900010AE04FF016
:102A5000D352B14B01F0AAF832463B4601F0A6F83A
:102A6000C4E9000117B04FF0FF30BDE8F08FAB496B
:102A7000A942159978DB21F0004183468846A84A8F
:102A8000A84B01F03DFB0022A74B01F08FF801F0AD
:102A9000A1FA099001F0CDFA06460F469C4A53462A
:102AA00001F02EFB43465A4601F05EFC80468A4602
:102AB000984A994B3046394601F022FB2A0D0125F0
:102AC0000B924246534601F04FFC032DC4E900012E
:102AD00039D00B98C1F30A51401A05EB4511113951
:102AE000814230DA9148C346784400EB0510CDF8B6
:102AF0000CA00C90D0E900233046394601F000FBD1
:102B000002460B46049106905846039901F01EFDBB
:102B100080468A4602460B465846039901F016FD48
:102B2000049B069A01F012FD83460C9803913946E6
:102B3000D0E90223304601F0E3FA5A46039B01F044
:102B400005FD6D1CBDE707980028A2BF099817B0C6
:102B5000BDE8F08F616881F000416160099817B0AD
:102B60004042BDE8F08FFFE784461598C1F313019A
:102B7000C0F30A50A0F2F5304FEA601800F01F06CB
:102B8000C6F12000139000200690079041F4801EAB
:102B900005206D4676B1664A08EB00017A4452F88A
:102BA000213002EB8101B3404A68139922FA01F106
:102BB000194305E05F4908EB0002794451F82210FF
:102BC000A1FB0E27A1FB0C131A449A4234BF012328
:102BD000002303EB070A05EB8003D3E901B70F4499
:102BE0008F4234BF0121002193448B4411B193459E
:102BF00002D903E0934501D2012100E00021C3E99D
:102C000001B7514445F82010011EA0F10100C1DCBC
:102C10000298059F00F10050800F12900298DDE9A4
:102C20000356800001F005FA834628460D9101F015
:102C300017FA6FF01D0201F0A7FDCDE90E01304635
:102C400001F00EFA6FF03D0201F09EFD80468A46CB
:102C5000384601F005FA6FF05D0201F095FD074678
:102C600042465346119100F0A1FFDDE90E2300F02A
:102C70009DFF5A460D9B00F099FF00250E465A46CF
:102C800028460D9B01F062FCDDE90E2301F05EFC9D
:102C90004246534601F05AFC3A46119B01F064FB50
:102CA000DFF898A0244A534601F02AFA07468846DE
:102CB000234A244B3146284601F022FA3A4643463D
:102CC00000F074FF074688464FF0A842534631464D
:102CD000284601F015FA3A46434600F067FF159A78
:102CE00012F0004F04D0129A81F000415242129229
:102CF000C4E90001129817B0BDE8F08FFB21E93F4D
:102D00007CD90240FB21F93F7370032E8A19A33B43
:102D1000000040543163621A61B4D03DFB21394157
:102D200083C8C96D305FE43F0000E03FEC1D000048
:102D3000681D00004A1D0000182D4454FB21F93D78
:102D40003326A611460B113C2DE9FF4D21F000481A
:102D500007460C46B8F1795F08DA01F03BF9002824
:102D600001BF0020324904B0BDE8F08D3A46234649
:102D70001046194601F0C4F9054602462D480E4694
:102D80000B460621784400F05DF82A46334601F0F0
:102D9000B7F9DDE9022382468B463846214601F029
:102DA000AFF904460F4652465B462846314601F0CD
:102DB000A7F922463B4601F0C9FB07468A464FF079
:102DC000FF322846314601F0DFFC1B4A90450ADA03
:102DD0003A46534601F0BAFB04B00022BDE8F04D7C
:102DE000134B01F0C1BA154A4245A8BFA8F500151A
:102DF0004FF00004B8BF124D22462B4601F0A6FB4F
:102E00000646884622462B460020094901F09EFBD3
:102E100004460D463A4653463046414601F096FB7D
:102E200004B022462B46BDE8F04D01F09DBA0000EB
:102E30000000F03F181B00003333D33F0000E93F90
:102E40000000D23F2DE9F0414F1E00EBC7010446C0
:102E5000D1E9000115461E4637F006020DD02A467C
:102E6000334601F04DF97F1E04EBC703D3E900237D
:102E700000F09CFE37F00602F1D1022F25D0042F7E
:102E800013D0062F18BFBDE8F0812A46334601F063
:102E900037F9D4E90A2300F089FE2A46334601F0C7
:102EA0002FF9D4E9082300F081FE2A46334601F0C9
:102EB00027F9D4E9062300F079FE2A46334601F0CB
:102EC0001FF9D4E9042300F071FE2A46334601F0CD
:102ED00017F9D4E9022300F069FE2A46334601F0CF
:102EE0000FF9D4E90023BDE8F04100F05FBE000017
:102EF0002DE9FF4D054621F0004084B00C46B0F1AD
:102F0000795F0BDA2846FFF746FD042808BF00F07A
:102F10007FF8284608B02146BDE8F08D2A460B46CA
:102F2000104601F0EDF806460F462A46234601F00A
:102F3000E7F8804626488A4632463B4605217844D3
:102F4000FFF780FF83461098029160B3214A224B1D
:102F50004046514601F0D4F8CDE900015A464046BA
:102F60005146029B01F0CCF882468846DDE9060115
:102F70004FF0FF3201F008FC5246434601F0E6FAFA
:102F800032463B4601F0BCF8DDE9062301F0DEFAEB
:102F9000DDE9002301F0DAFA08B02A462346BDE84D
:102FA000F04D01F0E1B90B465A463046394601F082
:102FB000A7F8084A084B00F0F9FD4246534601F0D5
:102FC0009FF808B02A462346BDE8F04D00F0EEBD5C
:102FD0005E1A0000495555555555C5BF0022134688
:102FE0001046014900F09EBE0000F03F012201F0B2
:102FF000CBBB00F0DBBD002213461046114600F0AB
:1030000091BE40F2013200204FF0E04101F0BCBB24
:10301000024A0020110701F0B7BB000001FDFFFFCD
:1030200000B5244B21F0004287B09A42DCBF002259
:10303000134629DD204B9A4208D140B94FF00100D8
:10304000FEF728FDFFF7D7FF07B000BD03DBFFF752
:10305000CDFF07B000BD02AAFFF7B2FC10F00301DC
:1030600004BF0DF1080C9CE80F000DD001200129D0
:103070000ED0022914D00DF1080C00909CE80F002E
:10308000FFF736FF07B000BDFFF75EFE07B000BDDB
:103090000DF1080C00909CE80F00FFF729FF05E0F8
:1030A0000DF1080C9CE80F00FFF74EFE07B081F011
:1030B000004100BDFB21E93F0000F07F2DE9F04D0C
:1030C0001D460C4698B0174621F0004123F00043FE
:1030D000002814BF4FF0010C4FF0000C0CEB440C17
:1030E000FE4A0CEB02064FEA620C66452BD33E000B
:1030F00018BF012606EB45061644F94A964222D32C
:10310000F84A53EA070C02D0944205D148B918B0E6
:1031100000201146BDE8F08D002808BF4FF0000CDC
:1031200001D04FF0010C0CEB440212F5001F0AD83D
:10313000002F14BF4FF0010C4FF0000C0CEB4502B8
:1031400012F5001F07D918B03A462B462146BDE8B4
:10315000F04DFFF74EBF0022DFF88CA3002CB8BF64
:10316000534526DADFF884C36345A8BF022220DA7C
:10317000DFF870C39C451CDCDFF874C30CEB235CE8
:10318000BCF1140F08DDCCF1340627FA06FC0CFA6A
:1031900006F6BE420DD108E05FB9CCF1140623FA61
:1031A00006FC0CFA06F69E4203D10CF00102C2F1B5
:1031B000020251EA000C19D1002D17DA002C18BFB9
:1031C000022A01D0012A07D00220FEF763FC18B0C2
:1031D000BDE8F04DFFF702BF0220FEF75BFCFFF7F2
:1031E000FDFE18B081F00041BDE8F08DB7F1000C94
:1031F0006CD1534525D104F1804212F5801201BFF4
:1032000000280020B74918B008BFBDE8F08DB548C8
:10321000884207DC002DA1BF6046294618B0BDE8F2
:10322000F08D07E0281E05DA80F0004118B06046F6
:10323000BDE8F08DAF497944D1E9000118B0BDE88F
:10324000F08DDFF8A0C2634525D1002D1FDA19B13A
:10325000514512D1D8B909E0002840F0EC82A24AC9
:10326000214618B062F31E01BDE8F08D0020214612
:1032700018B060F31E01BDE8F08D08DA18B02346DF
:10328000BDE8F04D02460020614600F04BBD18B08D
:103290002146BDE8F08D514518DAB5F1804F0DD0CB
:1032A000A5F1005CBCF1FF5C10D1B4F1000C0DDBAA
:1032B00018B06146BDE8F04D00F03CBC234618B0A4
:1032C0000246BDE8F04D194600F01ABF060024F092
:1032D000004C3BD1D9B1514533D1002C06DD002D36
:1032E000A1BF0020514618B0BDE8F08D002C01DDD3
:1032F000002D1BDB002C13DA002D11DB012A4FF00F
:10330000000014BF78497C4918B0BDE8F08D022A4E
:1033100018BF002C0AD0012A08D1002C06DA0AE0D6
:10332000002CB8BF002D11DA012A04D0002018B0FB
:103330000146BDE8F08D18B000204FF00041BDE817
:10334000F08DA1F14050B0F17F601AD0012000EB68
:10335000E47050EA020421D0624C521E4FF0000B80
:10336000104304BF4FF0000B644C654883427CDD82
:10337000644A654893421FDD884217DB002D25DB38
:1033800037E0002C00DA4AB1022A0CBF01204FF0CE
:10339000FF3018B0BDE8F04D00F04BBE0120FEF745
:1033A00079FB18B0BDE8F04DFFF725BE4D4A8A42C3
:1033B00002DC002D0ADC1CE0814202DA002D18DA62
:1033C00004E0484B994220DD002D12DD0220FEF77B
:1033D00061FBFFF716FE05460E460022534658468F
:1033E000214600F08DFE18B066F31E012846BDE8A8
:1033F000F08D0220FEF74EFBFFF70AFE0A4621463B
:1034000018B062F31E01BDE8F08D0022304661461F
:1034100001F09CF880460E466FF0010201F0B4F90D
:103420004FF05532394B00F09FFF4246334600F0D3
:1034300067FE0022364B00F097FF82464246334635
:1034400004911046194600F05BFE5246049B00F0C2
:1034500057FE8A4600904FF0C0422E4B4046314600
:1034600000F04EFE2C4A2B4B00E027E0CDE9060190
:103470005146009800F044FE82460191274A284BAD
:103480004046314600F03CFE5246019B01F05EF89A
:1034900082460B4602460591DDE9060100F086FBF7
:1034A000DDE9062300268846304601F04FF85246F3
:1034B000059B00F059FF024600F07EB90020B1F5EF
:1034C000801F07DA35223046614601F05DF9064675
:1034D0006FF0340000EB215024E00000FFFF1F00DC
:1034E000FFFF0F000000F03F0000F07F00004043AE
:1034F00001FCFFFF961600000000F0FF0000F0BF87
:103500000000E0410000F043FFFFEF3F5555D53F7D
:103510000000E03F4715F73FFE822B6544DF5DF872
:103520000BAE543EA0F2FF300190C1F3130040F007
:103530007F6141F040510291FE498842D8BF00208E
:1035400004DDFD498142C8BF012001DD0D9008E086
:1035500000200D900198401C01900298A0F5801069
:1035600002900299F54878440B910D9900EBC10047
:10357000D0E900230F9330460A920B9900F0E6FF42
:10358000CDE90601DDE90A2130460F9B00F00EFB74
:1035900002460B460020EA4900F0C4FB05910246B2
:1035A0000B460090DDE9060100F0AAFD1490E54805
:1035B0008A464FF0000878440299006812904FF054
:1035C000005040EA61010D980F9B01EB804000F52F
:1035D000002109910A9A129800F0B8FF32460B9B1D
:1035E00000F0C2FE4246534600F08AFD06460291B4
:1035F00040465146099B129A00F082FDDDE9062300
:1036000000F0B2FE3246029B00F0A0FF059B009A3C
:1036100000F076FD0091149A049053461046194626
:1036200000F06EFD06460246C7480B460291062191
:103630007844FFF707FCCDE90510029B324610469F
:10364000194600F05DFDDDE9053200F059FD0591F8
:103650000646534640461946149A00F0A7FA009BC6
:10366000049A00F04DFD3246059B00F09FFACDE92B
:103670000510424653461046194600F041FD00220F
:10368000B24B02910A9000F091FADDE9053200F0A8
:103690008DFA0E464246AD4B404600F057FF029B66
:1036A0000A9A00F053FFDDE9053200F05DFE424664
:1036B00002910A9033461046514600F021FDCDE9B3
:1036C00006015346149A02990A9800F019FD8A4699
:1036D0000290334642460099049800F011FD53468B
:1036E000029A00F063FA82460B4602460591DDE934
:1036F000060100F05BFADDE9062300208846064655
:1037000000F024FF5246059B00F02EFE82460991F0
:103710004FF060428E4B3046414600F0F1FC049081
:1037200006918C4A8A4B5046099900F0E9FC824682
:103730000291894A894B3046414600F0E1FC5246ED
:10374000029B00F033FA864B7B440D9A03EBC203D5
:10375000D3E9002300F02AFA0E900791019800F0B7
:1037600068FC0591DDE9061382460E9A049800F084
:103770001DFA7C4A7A440D9B02EBC303D3E9002374
:103780000093029200F012FA5246059B00F00EFAE6
:103790000026884652463046059B00F0D7FE009B27
:1037A000029A00F0D3FE069B049A00F0CFFE079B1E
:1037B0000E9A00F0D9FD024600200B4602903846D2
:1037C000294600F09DFC824601912B463846194659
:1037D000029A00F0BBFE3246434600F091FC52468E
:1037E000019B00F0E3F907468A46324643462946E4
:1037F000029800F085FC05460E463A46534600F016
:10380000D5F9594A8846914221DBA8EB020353EAD5
:10381000000210D12A46334600F098FECDE904019B
:10382000524A534B3846514600F0C0F9DDE90423B3
:1038300000F064FD21D20220FEF72CF9FFF7E1FB36
:103840000A46214618B062F31E01BDE8F08D494BCF
:1038500028F000429A4210D3474A08EB020353EA89
:1038600000027FF4C6AD2A46334600F06FFE3A46AA
:10387000534600F043FD7FF6BCAD0022019228F0D4
:1038800000403E493E4A01EB2051824223DA481C67
:103890004FF4801121FA00F040443A4AC0F30A5133
:1038A0007A44394BA1F2FF31CB4020EA0303C0F345
:1038B000130040F48010C1F11401C8401268019057
:1038C000B8F1000FBCBF404201902846314600F0DD
:1038D0003DFE05460E462A4633463846514600F020
:1038E00065F94FF000084246284B4046059100F02C
:1038F00007FCCDE90601264A264B4046059900F013
:10390000FFFB009102902A4633464046059900F09D
:103910001DFE3A46534600F027FD1F4A1F4B00F09C
:10392000EFFB009B029A00F041F9074688460246E9
:103930000B4635E08E9803007AB60B00AE120000FD
:103940000000F03F161300001412000000000840B1
:1039500009C7EE3FFD033ADCF5015B14E02F3EBEE4
:10396000EC100000B010000000009040FE822B65BB
:103970004715973C00CC904000346F3F01FCFFFF9F
:103980000000E03F2C100000FFFF0F00432EE63F39
:10399000396CA80C615C20BEEF39FAFE422EE63F7E
:1039A000DDE9060100F002F9DDE9062305460E46D1
:1039B00000F0CCFD3A46434600F0D6FC0F462A46BE
:1039C000334600901046194600F09AFB82460246A4
:1039D0002E4888460B4605217844FFF733FA5246B5
:1039E000434600F08DFB2A46334600F0BDFC80467E
:1039F0008A463B4628463146009A00F081FB3B460A
:103A0000009A00F0D3F80691009000224FF0804316
:103A10004046514600F09AFD0F460C9042465346F0
:103A20002846314600F06CFB3B460C9A00F07AF9D0
:103A3000069B009A00F08AFD2A46334600F086FD78
:103A40000022134B00F090FC054601980E4601EB56
:103A500000510815002810DC28463146019A00F074
:103A600093FEFEF798FF042808BFFFF7D1FA284617
:103A70003146019A00F088FE05460B4618B02A46EA
:103A800058462146BDE8F04D00F03ABB9C0E0000C0
:103A90000000F03F00B5254B21F0004287B09A426C
:103AA00003DC0022134600922BE0214B9A4208D1FE
:103AB00040B94FF00100FDF7EDFFFFF79CFA07B0AA
:103AC00000BD03DBFFF792FA07B000BD02AAFEF7C4
:103AD00077FF10F003014FF001000DD0012914D041
:103AE00002291AD00DF1080C9CE80F00FFF72CF901
:103AF00007B081F0004100BD0DF1080C00909CE87A
:103B00000F00FFF7F5F907B000BD0DF1080C9CE8B8
:103B10000F00FFF719F907B000BD0DF1080C009078
:103B20009CE80F00FFF7E4F9E2E70000FB21E93F22
:103B30000000F07F2DE9F04106460F4600F020FC22
:103B4000041E0D4618BF0120284320F00040C0F19C
:103B50007F6000F1E040C00F0ED0301C18BF012084
:103B6000384320F00040C0F17F6000F1E040C00F1A
:103B700004BF0120FDF78EFF20462946BDE8F081F5
:103B800010B500290AD00878002807D005487844E5
:103B9000FEF706FB002801D0002010BD0248784443
:103BA00010BD0000EE0E0000E60E000010B591EA18
:103BB000030F48BF83F0004300F1D084841A71EBF7
:103BC000030C05D2121943EB0C03001B61EB0C0133
:103BD000DFF824E14FEA1154A4EB135C1EEA430F13
:103BE00018BF9EEA445F73D023EA0E03DCF1200E77
:103BF00021EA045143F4801332D322FA0CFE10EB75
:103C00000E0023FA0CFE41EB0E01CCF1200E03FA5C
:103C10000EFE10EB0E0051F10001B1F5801FCCF14A
:103C2000200E32D201EB045112FA0EF2BDE8104020
:103C300058BF7047401C38BF5FEA420218BF704748
:103C4000002814BF20F0010041F100014FEA4103B8
:103C500013F5001F38BF7047A1F1C04100F048BB09
:103C6000012A43EB0302ACF1200CDCF11F0E32BF42
:103C70004FF0000E23FA0CF310EB030041EB04515C
:103C8000B4EB115FD0D0A1EB045101F580114908CC
:103C90005FEA300001EB04510ED350F1000038BF51
:103CA00012FA0EFE08D1BDE81040C9E7401C38BF2B
:103CB0005FEA4202CAD1C3E7BDE810404FEA4103C0
:103CC00013F5001F38BF7047A1F1C04100F010BBD1
:103CD0009EEA445F08D011EA5E0FBDE8104004BFC1
:103CE00001F0004100207047BDE8104070B500F0C1
:103CF000B1FA00BF64FBBE3E0000E0FF02494FF096
:103D0000000000F00FBD00BF0000F87F491058BF51
:103D1000C1F140415B1058BFC3F140438B42EFF308
:103D2000008070472DE9C04130B4DFF8A0C23CEA02
:103D3000111418BF3CEA131400F0EC8081EA03056B
:103D40001CEA111444EAD57418BF1CEA131500F0DC
:103D5000C780A4EB05044FF0004545EAC12145EAC0
:103D6000C32341EA505143EA525304F17F7499420C
:103D700004F500344FEAC0204FEAC22208BF904247
:103D800000F09C804FEA13650FF24016765D4FEA13
:103D9000134506FB05F7C7F1807706FB07F74FEAE7
:103DA000D737A7FB03687642C8F58038A7FB06CE55
:103DB00038BFA8F1010807FB08E64FF0000EA6FB8C
:103DC000028CE6FB03CEDCF1000CCEF1004E38BFD6
:103DD000AEF1010EA6FB0C584FF000074FF00005A6
:103DE000E6FB0E87A1FB08C6A0FB07CE16EB0E066E
:103DF00045F10005E1FB076515F1E04E7EBFA4F536
:103E000080345FEA46066D4116F1800745F10005F2
:103E10004FEA17274FEA066647EA0567A6F1DE462E
:103E2000B6F1805F4FEA15251FD9384624F0010C02
:103E300005EBC471BCF1FE6F01EB0C1102D8F0BCB4
:103E4000BDE8008124425CBF01F5801E9EEAC47F6C
:103E500002D4F0BCBDE80081244238D4F0BCA1F10A
:103E6000C041BDE8004100F043BA4FEAD22242EA25
:103E700043524FEAD323A7FB02864FEAD02040EA01
:103E8000415007FB03661EEA0E0F4FEAD12105FBE6
:103E9000026658BFA6EB0056B6EB00564FEA520E2C
:103EA0004EEAC37E18EB0E0E56EB530EBDD518EB43
:103EB00002085E417F1C55F10005B6E74FF48015FE
:103EC0004FF000074FF000064FF00008ADE7F0BCE0
:103ED0004FF0000001F1C04101F00041BDE8008158
:103EE00011EA0C1F0CEA131500D00CE013EA0C1FAA
:103EF00000F025804FF00000F0BC81EA030101F0E2
:103F00000041BDE80081F0BCBDE8004181EA030149
:103F100000F0EEB9F0BCBDE8004170B500F09AF9D0
:103F2000097EFC3E00F007B881EA03014FF0000073
:103F300001F00041704781EA030100F0D9B9F0BCFB
:103F4000BDE800414FF0000021497047FFFDFBF93B
:103F5000F7F5F4F2F0EEEDEBE9E8E6E4E3E1E0DEBC
:103F6000DDDBDAD8D7D5D4D3D1D0CFCDCCCBCAC82E
:103F7000C7C6C5C4C2C1C0BFBEBDBCBBBAB9B8B755
:103F8000B6B5B4B3B2B1B0AFAEADACABAAA9A8A848
:103F9000A7A6A5A4A3A3A2A1A09F9F9E9D9C9C9B16
:103FA0009A999998979796959594939392919190C1
:103FB0008F8F8E8E8D8C8C8B8B8A89898888878752
:103FC0008685858484838382828181800000FF07C7
:103FD0000000F87F4FEA41034FEA5353A3F5806393
:103FE000D3F11E03C8BFD3F1210C0CDD4FF000420A
:103FF00042EAC12242EA505232FA03FC8CEAE17CE6
:10400000ACEBE1707047102BC4BF0020704703F584
:10401000787CBCF1FF3F04D06FF0004282EA2100BF
:10402000704770B500F016F949922480002070475F
:10403000F2E710F0004248BF4042B0FA80F310FAB5
:1040400003F10AD0C3F11D0303F580634FEA415029
:1040500002EB035202EBD12170474FF00000704792
:10406000B0FA80F310FA03F10AD0C3F11D0303F58F
:1040700080634FEA41504FEA035202EBD12170476F
:104080004FF000007047000051EA030C17D41CF5F4
:10409000801F58BFBCF5801F00F10680994218BFF1
:1040A000704708BF9042704707D711F5801F58BF6F
:1040B00013F5801F19D499427047894270471CF547
:1040C000801F08D5BCF5801FF7D58B4218BF7047FD
:1040D00008BF824270474FF4001C1CEB410F38BFF1
:1040E0001CEB430F01D28B42704770B500F0B2F861
:1040F000922449004FF000514FF08053FFF706BE65
:10410000DFF848C170B51CEA111E1EBF1CEA13156A
:104110009EEA0C0F95EA0C0F00F06F8081EA030411
:1041200023EA4C134EEAD47E21EA4C1141F480116B
:1041300043F48013AE44A1FB024CA0FB0365AEF137
:104140007F7E361955EB0C05A1FB034C4CF10003A7
:10415000A0FB021C16EB0C06654153F1000309425B
:1041600018BF46F0010613F4007F0BD14FEA03316C
:104170004FEA0530340341EA155140EA16506FF01A
:1041800003020AE04FEAC3214FEAC520F40241EAE4
:10419000555140EA56506FF0020202EB2E4201EBFD
:1041A000025585EACE710AD05FEA440C18BF24F0AC
:1041B000004450F1000041F1000120EAD47040F2C7
:1041C000FE7C624500D270BDA84214BF4FF080440F
:1041D0004FF04044002E08BF0024BEF1806FA8BFFE
:1041E000A1F1C041BDE8704080F282804FF0000034
:1041F00001F1C04101F0004170479EEA0C0F0CEA4A
:10420000131518BF95EA0C0F06D04FF0000081EA95
:10421000030E0EF0004170BD00F01CF88900013E55
:1042200000F007B800F009B84FEA430C5FEA5C5CA5
:1042300008D081EA030100F05BB84FEA410C5FEA65
:104240005C5CF6D14FF00000014970470000FF07A9
:104250000000F87F0EF1020E2EF0030E5EF8046BE4
:10426000364205D4012A43EB030515F5001F12D889
:10427000012841EB010C1CF5001F0CD80ED14FEAB0
:10428000D17C15F5001F0CEB4C0C0CF1020C08BF97
:104290004CEBD37C04E04FF0080C01E04FEAD37CF8
:1042A0000CEB4C0526FA05F606F00706B6F1040CF1
:1042B00006D20EEB860CBDE870404CF0010C604756
:1042C000DFE80CF0090B02024FF000414FF0000054
:1042D000A1F5002170BD19461046012851EB0104DB
:1042E00018BFD4F5001484BF002001F0004170BD58
:1042F0000808A0F500114FEA3101704753EA010C9C
:1043000017D41CF5801F58BFBCF5801F00F1068034
:104310008B4218BF704708BF8242704707D713F51A
:10432000801F58BF11F5801F19D48B4270479B42E4
:1043300070471CF5801F08D5BCF5801FF7D5994242
:1043400018BF704708BF904270474FF4001C1CEB29
:10435000430F38BF1CEB410F01D2994270470FB495
:104360000CBC03BCFFF7C1BE91EA030F10B581F08E
:1043700000413FF523AC83F0004300F0EFB80000AC
:104380002DE9F04101F5801CBCF5001FC0F2C3808F
:104390004FEA115C21EA0C510CF1FD0C41F4801143
:1043A0005FEA5C0C0CF5C07C01D3400049413DA4A0
:1043B000890241EA905187028E0E0A0CA45D04FB2B
:1043C00004F602FB06F6C6F14046A4FB0662F60DB3
:1043D00046EA422606FB06F4A4FB01235242C3F13F
:1043E000404338BF5B1EA6FB02420024E6FB0324C9
:1043F000D20B42EA4446A6FB0623A1FB02E2A3FB42
:1044000007E4A4184FF0000252F10002E3FB01425E
:104410006442C2F1404E38BFAEF1010EA6FB042348
:104420004FF00002E6FB0E32A2FB03464FF0000401
:10443000B61954F10004E2FB0264A1FB06E6A4FBFA
:1044400007E816EB08064FF0000858F10008E4FBF7
:1044500001687642C8F1405838BFA8F10108A2FBB4
:1044600006E4A3FB08E52D194FF0000454F1000405
:10447000E2FB0854A1FB05E6A7FB04E818EB0608DD
:104480004FF0000656F10006E1FB048618F1200506
:1044900056F10006A809A8F11B08B10908F03F0869
:1044A000B8F10A0F40EA86601CD901EB0C51BDE857
:1044B000F08100BFFCF5EEE8E2DDD8D3CFCBC7C377
:1044C000C0BDB9B6B4B1AEACA9A7A5A3A19F9D9B31
:1044D0009A9896959392908F8D8C8B8988878685F4
:1044E00084838281A0FB006800FB01F208EB420894
:1044F000B8EB872807D5341858EB0104D5D5401CF4
:1045000051F10001D1E7341A78EB0104CDD4401EFB
:1045100071F10001C9E75FEA4C0C5FEA9C5C0DD1C8
:1045200005D34FF0000001F00041BDE8F081BDE887
:10453000F04170B5FFF78EFE6DDBFFBEBDE8F041C8
:104540004FF00000004970470000F87F10B591EA75
:10455000030F48BF83F000433FF530AB841A71EB83
:10456000030C07D212198CF0004C43EB0C03001B18
:1045700061EB0C01DFF8A4E14FEA1154A4EB135CEA
:104580001EEA430F18BF9EEA445F00F0B08023EAA2
:104590006E03524221EA0451C3EB6E0338BF5B1E27
:1045A000DCF1200E25D322FA0CFE10EB0E0043FAAC
:1045B0000CFE41EB0E01CCF1200E03FA0EFE10EBC7
:1045C0000E0051F10001CCF1200E29D412FA0EF2A6
:1045D00001EB0451BDE8104058BF7047401C1CBFA0
:1045E000B2F1004F704700280CBF491C20F00100B9
:1045F000704712EB020E43EB030218BF4FF0010E9F
:104600004EEA4202ACF1200CDCF11E0E54D943FA02
:104610000CFE10EB0E0051F1FF31CCF11E0ED5D582
:104620000EF1010E12FA0EFE404141EB010101EBC9
:10463000445C5FEA5C5C10D910EBDE7001EB045166
:1046400038BFBEF1004FBDE8104018BF70470028CA
:104650000CBF491C20F00100704730D24FEAD42C27
:1046600011F5001124F400641BD0B1FA81F20B3A69
:10467000A41AA41ED2F12003914030FA03F3194387
:10468000904001EBCC71002C01EB0451BDE81040CF
:10469000A8BF704701F1C0414FF0000001F0004198
:1046A0007047B0FA80F310FA03F100D110BDE41A9C
:1046B000173C4805C90AE4E701EB045110BD491055
:1046C00001EB0451BDE810404FEA300002E04FF02A
:1046D000000170474A0008BF0042F8D0B2F5001F41
:1046E00028BF704701F000414FF0000070479EEA7C
:1046F000445F07D011EA5E0FBDE8104004BF0021FF
:1047000000207047BDE8104070B5FFF7A3FD00BF63
:1047100040DFF63E83F00041104670470000E0FFA6
:10472000FDF795BA0CF00F03092B08BF082000F025
:1047300059800A2B0BD0082B18BF704708BF1CF0FC
:10474000400F0AD04FF000004FF0000170471CF0FE
:10475000400F18BF4FF0004070471CF0100F08D0FA
:1047600020F0704300F07F4242EAD3014FEA4370E9
:10477000704700F0604021F07F4242EA000201F001
:104780007F4040EA727070474FF0FF0C4CF4E06CD1
:104790001CEA11531CBF9CEA030C9445C2BFDA42C9
:1047A00001EB02517047002B0DD0BCF1000F0FD070
:1047B000002A01F00041A4BF41F0E04141F07F61D7
:1047C0004FF00000704701F000414FF000007047CB
:1047D00050EA01334FF09B0C18BF4CF0806C7FF413
:1047E0008DAA70471CF4801F11D01CF4E02F03D059
:1047F0006FEACC31490070474FF04050EFF3008230
:1048000022F0704242EA000282F3008870474FF0C3
:104810000000704700000000000000000000F03FB2
:10482000000000000000F83F000000000000000051
:104830000000004003B8E23F00000000000000005C
:1048400006D0CF43EBFD4C3E033333333333E33FEA
:10485000FFAB6FDBB66DDB3F4D268F515555D53F16
:1048600001411DA96074D13F65DBC9934A86CD3FE4
:10487000EF4E454A287ECA3F3E5555555555C53FD2
:1048800093BDBE166CC166BF2CDE25AF6A56113FC4
:10489000F16BD2C541BDBBBED0A4BE726937663EC6
:1048A0004C5555555555A53F7751C1166CC156BF4E
:1048B0009015CB19A001FA3EAD529C804F7E92BE5E
:1048C000C4B1B4BD9EEE213ED43888BEE9FAA8BD7D
:1048D000000000000000000000004054FB21F93FF0
:1048E0003163621A61B4D03D0000601A61B4D03DFA
:1048F0007370032E8A19A33B0000002E8A19A33B74
:10490000C14920259A837B39000000000000000087
:104910006E83F9A22915444ED15727FCC0DD34F52A
:10492000999562DB4190433CAB6351FE61C5BBDEB0
:104930003A6E24B7E0D24D42EA2E49061C92D109C4
:104940001CEB1DFE3EA729B1F53582E88444BB2E41
:1049500026709CE9417E5FB439D69139F43953838E
:104960008B5F849C3B28F9BDFF97F81F0F9805DEED
:104970008B112FEF1F6D0A5ACF7E366DB709CB27EB
:10498000663F464F2DEA5F9EC7BA27757BF1E5EB80
:10499000F739073DEA92528AB15FFB6B085D8D1FC4
:1049A000A6F810111111813FD561C119A0012ABFCC
:1049B0007DFEB157E31DC73EEB9C2B8AE6E55ABE50
:1049C0007CD5CF5A3AD9E53D02400000000000A056
:1049D0000000000005400000000000C800000000CA
:1049E0000C4000000000409C000000001940000046
:1049F0000020BCBE0000000034400000BFC91B8E78
:104A000000000004B5400000504BCFD06607E2CF55
:104A1000010000006C4100003E8251AADFEEA73485
:104A200001000000D9420000DCB5A0E23A301F9737
:104A3000FFFFFFFFB4450000FD25A0C8E9A3C14F5B
:104A4000FFFFFFFFFF3F00000000008000000000AC
:104A5000FF3F00000000008000000000984A0008AE
:104A600000000020640000006C010008FC4A0008FF
:104A7000640000205C070000880100081C000000A2
:104A800043000000F8FFFFFF0C0000000E000000D4
:104A90000F0000002E0000000000000000000000D9
:104AA0000000000000000000000000000000000006
:104AB00000000000000000000000000000000000F6
:104AC00000A24A04000000000000000001020304EC
:104AD00006070809010000000000000000000000B7
:104AE00000000000000000000000000102030401BB
:0C4AF0000203040607080902040608007F
:0400000508000131BD
:00000001FF
